:020000040000FA
:020000000C28CA
:040002000034003492
:080008008C0003088D000D08B7
:1000100083008C0E0C0E09008316860183120130BA
:1000200086002128023086002128043086002128FD
:100030000830860021288030860021280F30860075
:10004000212820308E008F010000000000000000F9
:10005000000000000000000000008F0B2D288E0B18
:1000600023280508060603191E2800300506031973
:100070003A281B280130060603191228023006060A
:100080000319152804300606031918280830060637
:0600900003190F280F28E0
:02400E00F33F7E
:00000001FF
